{"abi":[{"type":"constructor","inputs":[{"name":"tokenAddresses","type":"address[]","internalType":"address[]"},{"name":"priceFeedAddresses","type":"address[]","internalType":"address[]"},{"name":"dscAddress","type":"address","internalType":"address"}],"stateMutability":"nonpayable"},{"type":"function","name":"burnDsc","inputs":[{"name":"amount","type":"uint256","internalType":"uint256"}],"outputs":[],"stateMutability":"nonpayable"},{"type":"function","name":"calculateHealthFactor","inputs":[{"name":"totalDscMinted","type":"uint256","internalType":"uint256"},{"name":"collateralValueInUsd","type":"uint256","internalType":"uint256"}],"outputs":[{"name":"","type":"uint256","internalType":"uint256"}],"stateMutability":"pure"},{"type":"function","name":"depositCollateral","inputs":[{"name":"tokenCollateralAddress","type":"address","internalType":"address"},{"name":"amountCollateral","type":"uint256","internalType":"uint256"}],"outputs":[],"stateMutability":"nonpayable"},{"type":"function","name":"depositCollateralAndMintDSc","inputs":[{"name":"tokenCollateral","type":"address","internalType":"address"},{"name":"amountCollateral","type":"uint256","internalType":"uint256"},{"name":"amountDscToMint","type":"uint256","internalType":"uint256"}],"outputs":[],"stateMutability":"nonpayable"},{"type":"function","name":"getAccountCollateralValueInUsd","inputs":[{"name":"user","type":"address","internalType":"address"}],"outputs":[{"name":"totalCollateralValueInUsd","type":"uint256","internalType":"uint256"}],"stateMutability":"view"},{"type":"function","name":"getAccountInformation","inputs":[{"name":"user","type":"address","internalType":"address"}],"outputs":[{"name":"totalDscMinted","type":"uint256","internalType":"uint256"},{"name":"collateralValueInUsd","type":"uint256","internalType":"uint256"}],"stateMutability":"view"},{"type":"function","name":"getAdditionalPriceFeedPrecision","inputs":[],"outputs":[{"name":"","type":"uint256","internalType":"uint256"}],"stateMutability":"pure"},{"type":"function","name":"getCollateralBalanceOfUser","inputs":[{"name":"user","type":"address","internalType":"address"},{"name":"token","type":"address","internalType":"address"}],"outputs":[{"name":"","type":"uint256","internalType":"uint256"}],"stateMutability":"view"},{"type":"function","name":"getCollateralTokenPriceFeed","inputs":[{"name":"token","type":"address","internalType":"address"}],"outputs":[{"name":"","type":"address","internalType":"address"}],"stateMutability":"view"},{"type":"function","name":"getCollateralTokens","inputs":[],"outputs":[{"name":"","type":"address[]","internalType":"address[]"}],"stateMutability":"view"},{"type":"function","name":"getDsc","inputs":[],"outputs":[{"name":"","type":"address","internalType":"address"}],"stateMutability":"view"},{"type":"function","name":"getHealthFactor","inputs":[{"name":"user","type":"address","internalType":"address"}],"outputs":[{"name":"","type":"uint256","internalType":"uint256"}],"stateMutability":"view"},{"type":"function","name":"getLiquidationBonus","inputs":[],"outputs":[{"name":"","type":"uint256","internalType":"uint256"}],"stateMutability":"pure"},{"type":"function","name":"getLiquidationThreshold","inputs":[],"outputs":[{"name":"","type":"uint256","internalType":"uint256"}],"stateMutability":"pure"},{"type":"function","name":"getMinHealthFactor","inputs":[],"outputs":[{"name":"","type":"uint256","internalType":"uint256"}],"stateMutability":"pure"},{"type":"function","name":"getPrecision","inputs":[],"outputs":[{"name":"","type":"uint256","internalType":"uint256"}],"stateMutability":"pure"},{"type":"function","name":"getTokenAmountFromUsd","inputs":[{"name":"token","type":"address","internalType":"address"},{"name":"usdAmountInWei","type":"uint256","internalType":"uint256"}],"outputs":[{"name":"","type":"uint256","internalType":"uint256"}],"stateMutability":"view"},{"type":"function","name":"getUsdValue","inputs":[{"name":"token","type":"address","internalType":"address"},{"name":"amount","type":"uint256","internalType":"uint256"}],"outputs":[{"name":"","type":"uint256","internalType":"uint256"}],"stateMutability":"view"},{"type":"function","name":"liquidate","inputs":[{"name":"collateral","type":"address","internalType":"address"},{"name":"user","type":"address","internalType":"address"},{"name":"debtToCover","type":"uint256","internalType":"uint256"}],"outputs":[],"stateMutability":"nonpayable"},{"type":"function","name":"mintDsc","inputs":[{"name":"amountDscToMint","type":"uint256","internalType":"uint256"}],"outputs":[],"stateMutability":"nonpayable"},{"type":"function","name":"redeemCollateral","inputs":[{"name":"tokenCollateralAddress","type":"address","internalType":"address"},{"name":"amountCollateral","type":"uint256","internalType":"uint256"}],"outputs":[],"stateMutability":"nonpayable"},{"type":"function","name":"redeemCollateralForDsc","inputs":[{"name":"tokenCollateralAddress","type":"address","internalType":"address"},{"name":"amountCollateral","type":"uint256","internalType":"uint256"},{"name":"amountDscToBurn","type":"uint256","internalType":"uint256"}],"outputs":[],"stateMutability":"nonpayable"},{"type":"event","name":"CollateralDeposited","inputs":[{"name":"token","type":"address","indexed":true,"internalType":"address"},{"name":"user","type":"address","indexed":true,"internalType":"address"},{"name":"amount","type":"uint256","indexed":true,"internalType":"uint256"}],"anonymous":false},{"type":"event","name":"CollateralRedeemed","inputs":[{"name":"redeemedFrom","type":"address","indexed":true,"internalType":"address"},{"name":"redeemedTo","type":"address","indexed":true,"internalType":"address"},{"name":"token","type":"address","indexed":true,"internalType":"address"},{"name":"amount","type":"uint256","indexed":false,"internalType":"uint256"}],"anonymous":false},{"type":"error","name":"DSCEEngine__NotAlowedToken","inputs":[{"name":"token","type":"address","internalType":"address"}]},{"type":"error","name":"DSCEngine__BreaksHealthFactor","inputs":[{"name":"healthFactor","type":"uint256","internalType":"uint256"}]},{"type":"error","name":"DSCEngine__HealthFactorNotImproved","inputs":[]},{"type":"error","name":"DSCEngine__HealthFactorOk","inputs":[]},{"type":"error","name":"DSCEngine__MintFailed","inputs":[]},{"type":"error","name":"DSCEngine__NeedsMoreThanZero","inputs":[]},{"type":"error","name":"DSCEngine__TokenAddressesAndPriceFeedAddressesMustBeOfSameLength","inputs":[]},{"type":"error","name":"DSCEngine__TransferFailed","inputs":[]}],"bytecode":{"object":"0x60a06040523480156200001157600080fd5b506040516200143338038062001433833981016040819052620000349162000248565b600160005581518351146200005c576040516301e0782160e51b815260040160405180910390fd5b60005b835181101562000152578281815181106200007e576200007e620002c4565b6020026020010151600160008684815181106200009f576200009f620002c4565b60200260200101516001600160a01b03166001600160a01b0316815260200190815260200160002060006101000a8154816001600160a01b0302191690836001600160a01b031602179055506004848281518110620001025762000102620002c4565b60209081029190910181015182546001810184556000938452919092200180546001600160a01b0319166001600160a01b03909216919091179055806200014981620002da565b9150506200005f565b506001600160a01b031660805250620003029050565b634e487b7160e01b600052604160045260246000fd5b80516001600160a01b03811681146200019657600080fd5b919050565b600082601f830112620001ad57600080fd5b815160206001600160401b0380831115620001cc57620001cc62000168565b8260051b604051601f19603f83011681018181108482111715620001f457620001f462000168565b6040529384528581018301938381019250878511156200021357600080fd5b83870191505b848210156200023d576200022d826200017e565b8352918301919083019062000219565b979650505050505050565b6000806000606084860312156200025e57600080fd5b83516001600160401b03808211156200027657600080fd5b62000284878388016200019b565b945060208601519150808211156200029b57600080fd5b50620002aa868287016200019b565b925050620002bb604085016200017e565b90509250925092565b634e487b7160e01b600052603260045260246000fd5b600060018201620002fb57634e487b7160e01b600052601160045260246000fd5b5060010190565b60805161110062000333600039600081816102ea0152818161094701528181610c960152610d3b01526111006000f3fe608060405234801561001057600080fd5b50600436106101425760003560e01c80639acd81b3116100b8578063c9b7c3271161007c578063c9b7c327146102ca578063d40e0152146102dd578063deb8e018146102e8578063f419ea9c1461030e578063f687660814610321578063fe6bcd7c1461033457600080fd5b80639acd81b314610269578063a5d5db0c1461027c578063afea2e481461028f578063b58eb63f146102a2578063c660d112146102b757600080fd5b8063545af4fe1161010a578063545af4fe1461020657806359aa9e72146102195780637be564fc146102205780638c1ae6c81461024857806392b99263146102565780639670c0bc1461024857600080fd5b806301f72884146101475780631c08adda1461016d57806326c01303146101b157806331e92b83146101c65780634ae9b8bc146101ff575b600080fd5b61015a610155366004610e08565b610347565b6040519081526020015b60405180910390f35b61019961017b366004610e46565b6001600160a01b039081166000908152600160205260409020541690565b6040516001600160a01b039091168152602001610164565b6101c46101bf366004610e61565b61035c565b005b61015a6101d4366004610e9d565b6001600160a01b03918216600090815260026020908152604080832093909416825291909152205490565b603261015a565b61015a610214366004610e46565b610454565b600a61015a565b61023361022e366004610e46565b6104dc565b60408051928352602083019190915201610164565b670de0b6b3a764000061015a565b6101c4610264366004610ed0565b6104f2565b6101c4610277366004610f03565b61050a565b6101c461028a366004610f03565b610553565b61015a61029d366004610f03565b6106df565b6102aa6107af565b6040516101649190610f2d565b61015a6102c5366004610f03565b610811565b6101c46102d8366004610f7a565b6108d0565b6402540be40061015a565b7f0000000000000000000000000000000000000000000000000000000000000000610199565b6101c461031c366004610ed0565b6109eb565b6101c461032f366004610f7a565b6109fe565b61015a610342366004610e46565b610a34565b60006103538383610a3f565b90505b92915050565b808060000361037e5760405163cb1d3f7d60e01b815260040160405180910390fd5b610386610a92565b600061039184610aeb565b9050670de0b6b3a764000081106103bb5760405163032c072f60e41b815260040160405180910390fd5b60006103c786856106df565b9050600060646103d8600a84610fa9565b6103e29190610fc0565b905060006103f08284610fe2565b90506103fe87338a84610b07565b610409868833610c3a565b600061041488610aeb565b9050848111610436576040516303e141b160e51b815260040160405180910390fd5b61043f33610da5565b505050505061044e6001600055565b50505050565b6000805b6004548110156104d65760006004828154811061047757610477610ff5565b60009182526020808320909101546001600160a01b038781168452600283526040808520919092168085529252909120549091506104b58282610811565b6104bf9085610fe2565b9350505080806104ce9061100b565b915050610458565b50919050565b6000806104e883610dde565b9094909350915050565b6104fc8383610553565b610505816108d0565b505050565b808060000361052c5760405163cb1d3f7d60e01b815260040160405180910390fd5b610534610a92565b61054033338585610b07565b61054933610da5565b6105056001600055565b80806000036105755760405163cb1d3f7d60e01b815260040160405180910390fd5b6001600160a01b038084166000908152600160205260409020548491166105c257604051600162c4f37b60e01b031981526001600160a01b03821660048201526024015b60405180910390fd5b6105ca610a92565b3360009081526002602090815260408083206001600160a01b0388168452909152812080548592906105fd908490610fe2565b909155505060405183906001600160a01b0386169033907ff1c0dd7e9b98bbff859029005ef89b127af049cd18df1a8d79f0b7e019911e5690600090a46040516323b872dd60e01b8152336004820152306024820152604481018490526000906001600160a01b038616906323b872dd906064016020604051808303816000875af1158015610690573d6000803e3d6000fd5b505050506040513d601f19601f820116820180604052508101906106b49190611024565b9050806106d457604051634dc34d1760e01b815260040160405180910390fd5b5061044e6001600055565b6001600160a01b038281166000908152600160205260408082205490516315d0e4b560e11b81529216600483018190529091829073__$ede9043d9f4577afe595be6526c9716621$__90632ba1c96a9060240160a060405180830381865af415801561074f573d6000803e3d6000fd5b505050506040513d601f19601f820116820180604052508101906107739190611067565b5050509150506402540be4008161078a9190610fa9565b61079c670de0b6b3a764000086610fa9565b6107a69190610fc0565b95945050505050565b6060600480548060200260200160405190810160405280929190818152602001828054801561080757602002820191906000526020600020905b81546001600160a01b031681526001909101906020018083116107e9575b5050505050905090565b6001600160a01b038281166000908152600160205260408082205490516315d0e4b560e11b81529216600483018190529091829073__$ede9043d9f4577afe595be6526c9716621$__90632ba1c96a9060240160a060405180830381865af4158015610881573d6000803e3d6000fd5b505050506040513d601f19601f820116820180604052508101906108a59190611067565b505050915050670de0b6b3a7640000846402540be400836108c69190610fa9565b61079c9190610fa9565b80806000036108f25760405163cb1d3f7d60e01b815260040160405180910390fd5b6108fa610a92565b3360009081526003602052604081208054849290610919908490610fe2565b90915550610928905033610da5565b6040516340c10f1960e01b8152336004820152602481018390526000907f00000000000000000000000000000000000000000000000000000000000000006001600160a01b0316906340c10f19906044016020604051808303816000875af1158015610998573d6000803e3d6000fd5b505050506040513d601f19601f820116820180604052508101906109bc9190611024565b9050806109dc576040516330eb0fc960e01b815260040160405180910390fd5b506109e76001600055565b5050565b6109f4816109fe565b610505838361050a565b8080600003610a205760405163cb1d3f7d60e01b815260040160405180910390fd5b610a2b823333610c3a565b6109e733610da5565b600061035682610aeb565b600082600003610a525750600019610356565b60006064610a61603285610fa9565b610a6b9190610fc0565b905083610a80670de0b6b3a764000083610fa9565b610a8a9190610fc0565b949350505050565b600260005403610ae45760405162461bcd60e51b815260206004820152601f60248201527f5265656e7472616e637947756172643a207265656e7472616e742063616c6c0060448201526064016105b9565b6002600055565b6000806000610af984610dde565b91509150610a8a8282610a3f565b6001600160a01b03808516600090815260026020908152604080832093861683529290529081208054839290610b3e9084906110b7565b92505081905550816001600160a01b0316836001600160a01b0316856001600160a01b03167fb292db12b8dfa23b760ee5e3bd1d3be184cd8f0eeeacd27ce120d4de4e4721f684604051610b9491815260200190565b60405180910390a460405163a9059cbb60e01b81526001600160a01b038481166004830152602482018390526000919084169063a9059cbb906044016020604051808303816000875af1158015610bef573d6000803e3d6000fd5b505050506040513d601f19601f82011682018060405250810190610c139190611024565b905080610c3357604051634dc34d1760e01b815260040160405180910390fd5b5050505050565b6001600160a01b03821660009081526003602052604081208054859290610c629084906110b7565b90915550506040516323b872dd60e01b81526001600160a01b038281166004830152306024830152604482018590526000917f0000000000000000000000000000000000000000000000000000000000000000909116906323b872dd906064016020604051808303816000875af1158015610ce1573d6000803e3d6000fd5b505050506040513d601f19601f82011682018060405250810190610d059190611024565b905080610d2557604051634dc34d1760e01b815260040160405180910390fd5b604051630852cd8d60e31b8152600481018590527f00000000000000000000000000000000000000000000000000000000000000006001600160a01b0316906342966c6890602401600060405180830381600087803b158015610d8757600080fd5b505af1158015610d9b573d6000803e3d6000fd5b5050505050505050565b6000610db082610aeb565b9050670de0b6b3a76400008110156109e75760405163e580cc6160e01b8152600481018290526024016105b9565b6001600160a01b03811660009081526003602052604081205490610e0183610454565b9050915091565b60008060408385031215610e1b57600080fd5b50508035926020909101359150565b80356001600160a01b0381168114610e4157600080fd5b919050565b600060208284031215610e5857600080fd5b61035382610e2a565b600080600060608486031215610e7657600080fd5b610e7f84610e2a565b9250610e8d60208501610e2a565b9150604084013590509250925092565b60008060408385031215610eb057600080fd5b610eb983610e2a565b9150610ec760208401610e2a565b90509250929050565b600080600060608486031215610ee557600080fd5b610eee84610e2a565b95602085013595506040909401359392505050565b60008060408385031215610f1657600080fd5b610f1f83610e2a565b946020939093013593505050565b6020808252825182820181905260009190848201906040850190845b81811015610f6e5783516001600160a01b031683529284019291840191600101610f49565b50909695505050505050565b600060208284031215610f8c57600080fd5b5035919050565b634e487b7160e01b600052601160045260246000fd5b808202811582820484141761035657610356610f93565b600082610fdd57634e487b7160e01b600052601260045260246000fd5b500490565b8082018082111561035657610356610f93565b634e487b7160e01b600052603260045260246000fd5b60006001820161101d5761101d610f93565b5060010190565b60006020828403121561103657600080fd5b8151801515811461104657600080fd5b9392505050565b805169ffffffffffffffffffff81168114610e4157600080fd5b600080600080600060a0868803121561107f57600080fd5b6110888661104d565b94506020860151935060408601519250606086015191506110ab6080870161104d565b90509295509295909350565b8181038181111561035657610356610f9356fea2646970667358221220f7961b6807bcf43ee4e621ff4ca93b252a6eda63bd985d5da7981523c9faea2964736f6c63430008130033","linkReferences":{"src/Libraries/OracleLib.sol":{"OracleLib":[{"start":2632,"length":20},{"start":2938,"length":20}]}}},"methodIdentifiers":{"burnDsc(uint256)":"f6876608","calculateHealthFactor(uint256,uint256)":"01f72884","depositCollateral(address,uint256)":"a5d5db0c","depositCollateralAndMintDSc(address,uint256,uint256)":"92b99263","getAccountCollateralValueInUsd(address)":"545af4fe","getAccountInformation(address)":"7be564fc","getAdditionalPriceFeedPrecision()":"d40e0152","getCollateralBalanceOfUser(address,address)":"31e92b83","getCollateralTokenPriceFeed(address)":"1c08adda","getCollateralTokens()":"b58eb63f","getDsc()":"deb8e018","getHealthFactor(address)":"fe6bcd7c","getLiquidationBonus()":"59aa9e72","getLiquidationThreshold()":"4ae9b8bc","getMinHealthFactor()":"8c1ae6c8","getPrecision()":"9670c0bc","getTokenAmountFromUsd(address,uint256)":"afea2e48","getUsdValue(address,uint256)":"c660d112","liquidate(address,address,uint256)":"26c01303","mintDsc(uint256)":"c9b7c327","redeemCollateral(address,uint256)":"9acd81b3","redeemCollateralForDsc(address,uint256,uint256)":"f419ea9c"},"id":29}