{"abi":[{"type":"function","name":"staleCheckLatestRoundData","inputs":[{"name":"priceFeed","type":"AggregatorV3Interface","internalType":"contract AggregatorV3Interface"}],"outputs":[{"name":"","type":"uint80","internalType":"uint80"},{"name":"","type":"int256","internalType":"int256"},{"name":"","type":"uint256","internalType":"uint256"},{"name":"","type":"uint256","internalType":"uint256"},{"name":"","type":"uint80","internalType":"uint80"}],"stateMutability":"view"},{"type":"error","name":"OracleLib__StalePrice","inputs":[]}],"bytecode":{"object":"0x61024561003a600b82828239805160001a60731461002d57634e487b7160e01b600052600060045260246000fd5b30600052607381538281f3fe73000000000000000000000000000000000000000030146080604052600436106100355760003560e01c80632ba1c96a1461003a575b600080fd5b61004d610048366004610149565b610088565b6040805169ffffffffffffffffffff968716815260208101959095528401929092526060830152909116608082015260a00160405180910390f35b6000806000806000806000806000808a6001600160a01b031663feaf968c6040518163ffffffff1660e01b815260040160a060405180830381865afa1580156100d5573d6000803e3d6000fd5b505050506040513d601f19601f820116820180604052508101906100f99190610198565b945094509450945094506000824261011191906101e8565b9050612a3081111561013657604051636250849d60e11b815260040160405180910390fd5b50939a9299509097509550909350915050565b60006020828403121561015b57600080fd5b81356001600160a01b038116811461017257600080fd5b9392505050565b805169ffffffffffffffffffff8116811461019357600080fd5b919050565b600080600080600060a086880312156101b057600080fd5b6101b986610179565b94506020860151935060408601519250606086015191506101dc60808701610179565b90509295509295909350565b8181038181111561020957634e487b7160e01b600052601160045260246000fd5b9291505056fea2646970667358221220e58e217b934433d3340f6f7a8ac93bda8a56ecf1b242424bdee7edfad2a6874f64736f6c63430008130033","linkReferences":{}},"methodIdentifiers":{"staleCheckLatestRoundData(AggregatorV3Interface)":"2ba1c96a"},"id":31}